:020000040800F2
:1000000080170020290200089D0D0008AB0400089D
:10001000AD040008B3030008E52A00080000000052
:100020000000000000000000000000004320000865
:10003000B503000800000000190E0008A9210008FF
:10004000430200084302000843020008430200087C
:10005000430200084302000843020008430200086C
:10006000430200084302000843020008430200085C
:10007000430200084302000843020008430200084C
:10008000430200084302000843020008430200083C
:10009000430200084302000843020008430200082C
:1000A0006D220008430200084302000843020008D2
:1000B000352300083D2300084923000843020008B7
:1000C00043020008430200084302000843020008FC
:1000D0004302000841280008AD280008192900083B
:1000E00043020008430200084302000843020008DC
:1000F00043020008430200084302000843020008CC
:100100004302000843020008552300084302000888
:100110004302000843020008612300088923000805
:10012000430200084302000843020008430200089B
:10013000430200084302000843020008430200088B
:10014000430200084302000843020008430200087B
:10015000430200084302000843020008430200086B
:10016000430200084302000843020008430200085B
:10017000430200084302000843020008430200084B
:10018000430200084302000800F002F800F03CF8C7
:100190000AA090E8000C82448344AAF10107DA45E2
:1001A00001D100F031F8AFF2090EBAE80F0013F0F8
:1001B000010F18BFFB1A43F001031847E430000099
:1001C00004310000103A24BF78C878C1FAD8520729
:1001D00024BF30C830C144BF04680C6070470000C1
:1001E0000023002400250026103A28BF78C1FBD840
:1001F000520728BF30C148BF0B6070471FB503F0DE
:1002000045F81FBD10B510BD00F099F81146FFF775
:10021000F5FF02F0B3FC00F0B7F803B4FFF7F2FF0C
:1002200003BC00F0BFF800000948804709480047B8
:10023000FEE7FEE7FEE7FEE7FEE7FEE7FEE7FEE796
:10024000FEE7FEE704480549054A064B70470000F3
:10025000AD210008890100088011002080170020CE
:10026000801300208013002010B5431C02E010F81A
:10027000011B71B18107FAD14FF0013202C88C1A0B
:100280008C4314EAC211F9D0C01A0A0603D0C01E6A
:1002900010BDC01A10BD0A0401D0801E10BD090295
:1002A000FCD0401E10BD4FF000020429C0F01280A7
:1002B00010F0030C00F01E80CCF1040CBCF1020F16
:1002C00018BF00F8012BA8BF20F8022BA1EB0C01EE
:1002D00000F010B85FEAC17C24BF00F8012B00F8E1
:1002E000012B48BF00F8012B7047704770477047DB
:1002F0004FF0000200B5134694469646203922BFBF
:10030000A0E80C50A0E80C50B1F12001BFF4F7AF09
:10031000090728BFA0E80C5048BF0CC05DF804EBEB
:10032000890028BF40F8042B08BF704748BF20F859
:10033000022B11F0804F18BF00F8012B7047754653
:1003400000F02CF8AE4605006946534620F0070041
:10035000854618B020B5FFF775FFBDE820404FF087
:1003600000064FF000074FF000084FF0000B21F09F
:100370000701AC46ACE8C009ACE8C009ACE8C0096C
:10038000ACE8C0098D46704710B50446AFF3008055
:100390002046BDE81040FFF740BF0000004870470E
:1003A0001C11002001491820ABBEFEE72600020008
:1003B0007047FEE77047F0B5002201274FF0030CAD
:1003C0000B6807FA02F52B40AB422CD106685300AC
:1003D0000CFA03F4A64306600E79D0F800E09E40C4
:1003E00046EA0E0606600E79012E01D0022E12D1C9
:1003F0008668A64386604E79D0F808E09E4046EABB
:100400000E0686604668AE43466045688E79964023
:10041000B6B235434560C568A543C560CC799C40FC
:10042000C3681C43C460521C102AC9D3F0BD4B07DB
:10043000DB0E9A40C90810B500EB8100016A0F2459
:100440009C40A1430162016A1143016210BD2DE984
:10045000FC4781460AA8144690E8C0010A461D469A
:100460000121104601F018F98DF804508DF806604E
:100470008DF8057000948DF8078069464846FFF7AF
:100480009AFF2146484600F009F8BDE8FC8702467D
:10049000002052690A4200D0012070474183704712
:1004A0000AB10183704741837047FEE7FEE7000011
:1004B0002DE9F041012000F0BDF90646022000F0D0
:1004C000B9F90546032000F0B5F90446042000F010
:1004D000B1F903461A4840F68C22016851434EF6A2
:1004E000602292FBF1F77743476092FBF1F76F438D
:1004F000876092FBF1F792FBF1F167435943C0E942
:10050000037110480168304600F024F806460E4892
:100510000168284600F04CF805460C480168204662
:1005200000F074F804460A480168184600F09CF888
:1005300003B222B229B230B2BDE8F04100F0BABB3A
:10054000540000203000002034000020380000203B
:100550003C000020154A401A116BD2ED090A411ADD
:1005600000EE101A92ED0A1AB8EEC00A60EE200AE8
:1005700000EE100AB8EEC00A41EE000A92ED0D0A34
:10058000B8EEC00A30EE800ABDEEC00A10EE101AB6
:10059000C2E90C0142F20800814202DC4042814281
:1005A00001DA50637047506B704700005400002020
:1005B000154A401AD16BD2ED090A411A00EE101A01
:1005C00092ED0A1AB8EEC00A60EE200A00EE100A98
:1005D000B8EEC00A41EE000A92ED100AB8EEC00A69
:1005E00030EE800ABDEEC00A10EE101AC2E90F010B
:1005F00042F20800814202DC4042814201DA10648A
:100600007047106C7047000054000020154A401AD3
:10061000916CD2ED090A411A00EE101A92ED0A1AF5
:10062000B8EEC00A60EE200A00EE100AB8EEC00A6A
:1006300041EE000A92ED130AB8EEC00A30EE800ACD
:10064000BDEEC00A10EE101AC2E9120142F2080013
:10065000814202DC4042814201DAD0647047D06CB2
:100660007047000054000020154A401A516DD2ED29
:10067000090A411A00EE101A92ED0A1AB8EEC00AE1
:1006800060EE200A00EE100AB8EEC00A41EE000A41
:1006900092ED160AB8EEC00A30EE800ABDEEC00A2E
:1006A00010EE101AC2E9150142F20800814202DC84
:1006B0004042814201DA90657047906D70470000BA
:1006C00054000020024880ED090AC0ED0A0A704774
:1006D0005400002070B515461B4A44F698142DEDC1
:1006E000048B136840F68C22534393FBF4F242438D
:1006F00093FBF4F000EE102A4843F8EEC09A00EEA7
:10070000100A93FBF4F0B8EEC09A02F0ACFB41EC97
:10071000180B284602F0A7FB9FED0C0B53EC102B97
:1007200002F0CCFB53EC182B02F0C8FB02F092FA5B
:10073000F0EE490AB0EE690ABDEC048B01EE100A36
:10074000BDE8704000F006BA54000020D7A3703D09
:100750000AD732401FB504464FF4A06000F052FBA8
:100760000121102000F0A4FF16484FF0FF31046073
:1007700004EB840001EB4000019042F2CF00ADF8A1
:1007800000000020104CADF80800ADF802006946EA
:10079000204602F00DF801221146204601F0D8FE55
:1007A0000121204601F03CFE36208DF80C0001208E
:1007B0008DF80F008DF80D008DF80E0003A800F0E5
:1007C000EFFA1FBD54000020001000400EB50122BA
:1007D000032100208DE8070013464A022021024829
:1007E000FFF735FE0EBD00000014024070B50F4C3F
:1007F0004FF400710E4D22784E005AB10022284667
:10080000FFF74EFE002231462846FFF749FE002042
:10081000207070BD01222846FFF742FE01223146BA
:100820002846FFF73DFE0120F2E70000B40000205B
:100830000014024000210A46012806D0022806D0F2
:1008400003280AD004280AD00DE0084808E04FF039
:100850008040416A426209B205E0054800E005486F
:100860000168026009B2484270470000240C004051
:1008700024040040240800402DE9F04F012189B0F4
:10088000084600F015FF032600240125DFF84CB2CE
:10089000CDE9004602239A03294658460295FFF700
:1008A000D6FDCDE900460223082219465846029596
:1008B000FFF7CDFD01220F215846FFF7B8FDDFF805
:1008C00020A2012203215046FFF7B1FD03A801F049
:1008D000ADFFADF80C404FF6FF774FF0804904971D
:1008E000ADF81440ADF80E4003A9484601F060FF92
:1008F00000231A460321484601F0A7FD06A801F08F
:100900001FFE4FF00A08ADF8208006A9484601F006
:10091000C1FD0121484601F07DFD012211464846F6
:1009200001F016FE0021484601F018FF012148465B
:1009300001F076FD0121022000F0BAFECDE900466B
:1009400002233022194650460295FFF780FD02220D
:1009500004215046FFF76BFD022205215046FFF7A8
:1009600066FD03A801F062FFDFF87891ADF80C4056
:100970000497ADF81440ADF80E4003A9484601F0C5
:1009800017FF00231A460321484601F05EFD06A822
:1009900001F0D6FDADF820800121484601F03AFD76
:1009A00001221146484601F0D3FD0021484601F0DE
:1009B000D5FE0121484601F033FD0121042000F05D
:1009C00077FECDE900460223C02219465046029523
:1009D000FFF73DFD022206215046FFF728FD0222C7
:1009E00007215046FFF723FD03A801F01FFFADF8D4
:1009F0000C404FEAFB490497ADF81440ADF80E40A7
:100A000003A9484601F0D4FE00231A4603214846B4
:100A100001F01BFD06A801F093FDADF8208006A9AA
:100A2000484601F037FD0121484601F0F3FC012260
:100A30001146484601F08CFD0021484601F08EFE2B
:100A40000121484601F0ECFC0121082000F030FEB5
:100A5000CDE9004602230322012158460295FFF703
:100A6000F6FC022200215846FFF7E1FC0222012198
:100A70005846FFF7DCFC03A801F0D8FEADF80C40A7
:100A8000ADF81440ADF80E40174C049703A920466A
:100A900001F08EFE00231A460321204601F0D5FC0A
:100AA00006A801F04DFDADF8208006A9204601F012
:100AB000F1FC0121204601F0ADFC01221146204647
:100AC00001F046FD0021204601F048FE01212046AC
:100AD00001F0A6FC09B0BDE8F08F00000000024064
:100AE0000004024000040040000C0040184890ED53
:100AF000070AD0ED080A90ED051A30EE200AD0ED75
:100B0000060A20EE200AD0ED040A71EE201A71EEDA
:100B1000801AFDEEE11AC0ED001A71EE601A71EE56
:100B2000801AFDEEE11AC0ED011AF1EE411A71EEE4
:100B3000E01A70EEC10A71EE801A30EE800AFDEE06
:100B4000E11ABDEEC00AC0ED021A80ED030A70473B
:100B500030000020024880EC030AFFF7C7BF000006
:100B600040000020024880ED070AC0ED080A7047E7
:100B7000300000200EB50122032100208DE807007F
:100B80001346FF2204210848FFF761FC012142F2CD
:100B9000D00000F00BF8002303B01A46194618469F
:100BA0005DF804EB00F086B8000802402DE9F04340
:100BB0008846814601218BB0084600F085FD012161
:100BC000112000F069FD032600240125364FCDE9F0
:100BD000004602234FF41062294638460295FFF77B
:100BE00036FCCDE90046314E02234FF4205210214D
:100BF00002953046FFF72BFC012208213846FFF70B
:100C000016FC01220B213046FFF711FC01220D21B9
:100C10003046FFF70CFC01220B213846FFF707FC9A
:100C2000ADF82080ADF82240ADF82840204CCDF83A
:100C3000249008A9204601F0BBFD7021ADF80C10EE
:100C40000220ADF81800ADF80E5003A9204601F0BF
:100C500087FC03A9204601F0B9FC03A9204601F056
:100C6000FFFC03A9204601F03FFD0821204601F0CA
:100C7000A7FC0821204601F0E9FC0821204601F0EC
:100C80002DFD0821204601F05FFD0121204601F0E5
:100C9000B7FB0121204601F0C3FB0121204601F0F2
:100CA000C9FB0BB0BDE8F083000002400010024019
:100CB000000001402DE9F041DFF8D8801C461546C0
:100CC0000E46070008D5404207B2002201214046E7
:100CD000FFF7E6FB012205E0012211464046FFF73F
:100CE000DFFB002202214046FFF7DAFB002E08DA84
:100CF000704206B2002204214046FFF7D1FB0122D8
:100D000005E0012204214046FFF7CAFB002208212A
:100D10004046FFF7C5FB002D08DA684205B2002205
:100D200010214046FFF7BCFB012205E00122102103
:100D30004046FFF7B5FB002220214046FFF7B0FBFD
:100D4000002C08DA604204B2002240214046FFF73E
:100D5000A7FB012205E0012240214046FFF7A0FB4E
:100D6000002280214046FFF79BFB42F208008742A9
:100D700000DD074608494F63864200DD06468E6364
:100D8000854200DD0546CD63844200DD04460C64E7
:100D9000BDE8F081000802400000014070470000FB
:100DA00030B50F23C27801780125FAB1144A1268D0
:100DB00001F1E02102F4E062C2F5E062C2F3072231
:100DC000C2F10404D3404278A24084781C4014430A
:100DD000220181F80024007800F01F018D404009B5
:100DE000800000F1E020C0F8005130BD01F01F008C
:100DF00085404809800000F1E020C0F8805130BDF6
:100E00000CED00E002490843024908607047000009
:100E10000000FA050CED00E0704700000249887000
:100E20004FF4165101F0A9B8B000002070B51A4D6A
:100E300006460846E97002F02DF89FED181B53ECAA
:100E4000112B02F03BF89FED171B53EC112B01F017
:100E500033FF01F0D9FF04B24FF4FA70844203DB90
:100E600040F6C410844200DD04462978A87801F0D9
:100E7000D0F86978A87801F0CCF83146A87801F06C
:100E8000C8F8E1B2A87801F0C4F8C4F30721A87843
:100E9000BDE8704001F0BDB8B0000020B81E85EB81
:100EA000513826400000000000407F400748DFED39
:100EB000060A90ED010AB8EEC01A81EE200ABDEED6
:100EC000C00A10EE100A704700004843B800002026
:100ED0003EB50122032100208DE8070013460C22B5
:100EE00010210948FFF7B3FA084C012204212046DB
:100EF000FFF7D6FA002208212046FFF7D1FABDE815
:100F00003E4000F021B800000010024000080240FE
:100F10000B48D0ED020AF4EE400AF1EE10FA0DD0C3
:100F2000BDEEC01ADFED070AB8EEC11A61EE200A65
:100F3000FDEEE00AC0ED000A80ED020A70470000F5
:100F4000B8000020000048431FB54FF4A060FFF731
:100F500059FF0121202000F0ABFB0920019042F253
:100F6000CF00ADF800000020104CADF80800ADF83F
:100F700002006946204601F01BFC01221146204672
:100F800001F0E6FA0121204601F04AFA37208DF8F7
:100F90000C0001208DF80F008DF80D0002208DF857
:100FA0000E0003A8FFF7FCFE1FBD00000014004068
:100FB000054A90795A30B42800D90020C1B2917105
:100FC0000720FFF733BF0000C40000202DE9FE4FCB
:100FD0005A210120FFF72AFF5A210520FFF726FF9B
:100FE0005A210620FFF722FF5A210720FFF71EFF94
:100FF000634F5A200124F87038717871B871002657
:1010000003250096DFF87CA1CDE901544FF4007B65
:1010100023465A4608215046FFF719FA0096DFF892
:101020006881CDE9015401239A0302214046FFF76C
:101030000EFA0096CDE901540123DA03022140465D
:10104000FFF705FA0096CDE901544FF480780123AB
:10105000424608215046FFF7FAF90096CDE90154BF
:101060000123DA0208215046FFF7F1F90096CDE995
:1010700001544FF4806901234A4608215046FFF786
:10108000E6F90096DFF804A1CDE90154012304221A
:1010900020215046FFF7DBF90096CDE901540123EA
:1010A000082220215046FFF7D2F90096CDE90154DD
:1010B0000123102220215046FFF7C9F90096CDE9FF
:1010C00001540123022220215046FFF7C0F9009667
:1010D000CDE9015401231A4620215046FFF7B7F904
:1010E0000096CDE9015401235A0304212848FFF753
:1010F000AEF90096CDE90154012342462021504625
:10110000FFF7A5F90096CDE9015401235A462021A5
:101110005046FFF79CF90096CDE9015401234A4659
:1011200020215046FFF793F90096CDE901540123A1
:10113000802220215046FFF78AF90096CDE901541C
:101140000123402220215046FFF781F90096CDE986
:1011500001542022012311465046FFF778F901215E
:10116000002000F017F80121084600F013F80121D3
:10117000022000F00FF83C707C70BC70BDE8FE8F60
:10118000C4000020000C0240000402400014024091
:10119000000802402DE9F05F4FF000084FF0010910
:1011A0004FF0020A4FF400764FF0040BFD4CD0B321
:1011B000FD4D012871D0022833D101296ED00029BC
:1011C0006DD002296CD003296BD0042929D1607914
:1011D0005A30B42800D9B420C1B261710620FFF79B
:1011E00025FE012211022846FFF75AF90022314656
:1011F0002846FFF755F9012291022846FFF750F9DA
:10120000002280212846FFF74BF901224021284681
:10121000FFF746F9012220212846FFF741F984F81B
:1012200002B0BDE8F09FFFE7E04DE14F012939D062
:1012300091B302297CD0032979D00429F1D1E07837
:101240005A30B42800D9B420C1B2E1700120FFF7B0
:10125000EDFD012231462846FFF722F900224FF426
:1012600080413846FFF71CF90122D1033846FFF7C9
:1012700017F900224FF480712846FFF711F9012277
:10128000D1022846FFF70CF9012291022846FFF708
:1012900007F984F800B0C4E725E098E060E18BE14D
:1012A000ABE1CCE1012231462846FFF7F9F80122F3
:1012B00091033846FFF7F4F80122D1033846FFF7CF
:1012C000EFF8012211022846FFF7EAF80122D102C5
:1012D0002846FFF7E5F8012291022846FFF7E0F8DB
:1012E00084F800909DE7012231462846FFF7D8F8A0
:1012F00000224FF480413846FFF7D2F80122D10393
:101300003846FFF7CDF8012211022846FFF7C8F84A
:1013100000224FF400612846FFF7C2F80122910233
:101320002846FFF7BDF884F800807AE700E021E066
:10133000002231462846FFF7B3F8012291033846D0
:10134000FFF7AEF80122D1033846FFF7A9F80022D3
:101350004FF480712846FFF7A3F80122D1022846F6
:10136000FFF79EF8012291022846FFF799F884F8CA
:1013700000A056E7E0785A2801D45A3800E000204F
:10138000C1B2E1700120FFF751FD0022314628462D
:10139000FFF786F8012291033846FFF781F8012212
:1013A000D1033846FFF77CF8012211022846FFF7E7
:1013B00077F800224FF400612846FFF771F8012208
:1013C00091022846FFF76CF80320207029E7794F37
:1013D0004FF40056012932D081B3022973D003297A
:1013E00070D00429A1D120795A30B42800D9B42072
:1013F000C1B221710520FFF719FD01220421284601
:10140000FFF74EF8002208212846FFF749F801228D
:1014100010212846FFF744F8002202212846FFF752
:101420003FF8012211462846FFF73AF801223146DB
:101430003846FFF735F884F801B0F2E620E00122E3
:1014400004212846FFF72CF8012208212846FFF73F
:1014500027F8012210212846FFF722F80122022155
:101460002846FFF71DF8012211462846FFF718F815
:10147000012231463846FFF713F884F80190D0E690
:10148000012204212846FFF70BF8002208212846F4
:10149000FFF706F8012210212846FFF701F8012284
:1014A00002212846FEF7FCFF002201212846FEF714
:1014B000F7FF012231463846FEF7F2FF84F801803B
:1014C000AFE600E020E0002204212846FEF7E8FF16
:1014D000012208212846FEF7E3FF012210212846B9
:1014E000FEF7DEFF002202212846FEF7D9FF012287
:1014F00011462846FEF7D4FF012231463846FEF752
:10150000CFFF84F801A08CE620795A2801D45A38FC
:1015100000E00020C1B221710520FFF787FC002206
:1015200004212846FEF7BCFF012208212846FEF7C9
:10153000B7FF012210212846FEF7B2FF0122022147
:101540002846FEF7ADFF002201212846FEF7A8FF3E
:10155000012231463846FEF7A3FF0320607060E6A3
:10156000012211022846FEF79BFF01223146284640
:10157000FEF796FF012291022846FEF791FF012215
:1015800080212846FEF78CFF012240212846FEF7E5
:1015900087FF012220212846FEF782FF84F802906F
:1015A0003FE60000C400002000140240000C02408E
:1015B0000004024000080240012211022846FEF702
:1015C0006FFF002231462846FEF76AFF0122910292
:1015D0002846FEF765FF012280212846FEF760FFBE
:1015E000002240212846FEF75BFF012220212846E9
:1015F000FEF756FF84F8028013E600224FF4807154
:101600002846FEF74DFF012231462846FEF748FFE7
:10161000012291022846FEF743FF0022802128463E
:10162000FEF73EFF012240212846FEF739FF012246
:1016300020212846FEF734FF84F802A0F1E5607906
:101640005A2801D45A3800E00020C1B26171062046
:10165000FFF7ECFB00224FF480712846FEF720FFD5
:10166000012231462846FEF71BFF0122910228463F
:10167000FEF716FF012280212846FEF711FF002207
:1016800040212846FEF70CFF012220212846FEF7C4
:1016900007FF0320A070C4E5044A0029116801D0A7
:1016A000014300E081431160704700003038024080
:1016B000044A0029116801D0014300E08143116010
:1016C0007047000040380240044A0029116801D0E8
:1016D000014300E08143116070470000443802403C
:1016E00070B5204B1968204C11F00C0104D0661025
:1016F000042903D0082903D004601BE0066019E028
:10170000184A121F1168C1F38055116801F03F019A
:1017100015B1B6FBF1F101E0B4FBF1F11468126808
:10172000C4F388146143C2F30142521C5200B1FB5E
:10173000F2F1016019680F2202EA11110B4A545CA0
:101740000168E14041601C68072505EA9424145DA6
:1017500021FA04F484601B6805EA5333D25CD1405B
:10176000C16070BD083802400024F4000100002070
:1017700010B5022000F092F8642000F023F8FFF783
:10178000A7FB0320FFF74AFBFFF720FCFFF71EF83B
:10179000FFF7F0F9DFED090A9FED090AFFF7E2F91B
:1017A000FFF76AF8F1EE020AB1EE0C0AFEF78AFFC3
:1017B000BDE810400A20FEF7CDBF0000EE7CBF3E22
:1017C000508DD73E1FB504464FF4A060FFF71AFBBB
:1017D00001210804FFF778FF04EB84004FF0FF318C
:1017E00001EB4000019044F29F10ADF80000002092
:1017F0000F4CADF80800ADF802006946204600F035
:10180000D7FF01221146204600F0A2FE012120460A
:1018100000F006FE18208DF80C0001208DF80F0056
:101820008DF80D008DF80E0003A8FFF7B9FA1FBD63
:10183000004001402DE9F0470027884681463D469B
:10184000114E40F2FF3A114C15E0207800F0A5FB54
:10185000402810D078B1484500D165606168705467
:10186000491C6160404501D0514504D1012902DD88
:101870000127755404E0207800F070FB0028E4D1C3
:101880003846BDE8F08700001C0D0020280000202D
:10189000014900204860704728000020FEB51B4D1C
:1018A0004FF4E131287000F068FB4FF48061184874
:1018B000FEF7F9FC002464206C6001F02BF9012094
:1018C00003250094CDE90150124E03462A0302215C
:1018D0003046FEF7BCFD02200094CDE901504203E2
:1018E000014600233046FEF7B2FD012211033046C7
:1018F000FEF7D6FD00224FF400513046FEF7D0FD32
:10190000BDE8FE40642001F005B900002800002079
:101910001C0D00200004024001460248007800F03F
:101920004BBB0000280000200148007800F054BBA9
:101930002800002001460248007800F05ABB000051
:101940002800002002488088002800D0012070472D
:1019500016000020F0B52C4D064689B0002128461F
:1019600001F019F84FF4A060FFF74CFA2915274849
:10197000FEF799FC26480024012184801020FFF7FF
:10198000A3FE0320CDE90040224F420202230121A1
:1019900038460294FEF75BFD072209213846FEF720
:1019A00046FD07220A213846FEF741FD0C20ADF81E
:1019B0001600ADF812400396ADF81840ADF814408B
:1019C000ADF8104003A9284601F02EF80121284661
:1019D00000F0E1FF012240F22551284601F00BF80A
:1019E0004021284600F0CEFF25208DF81C00012064
:1019F0008DF81F008DF81D008DF81E4007A8FFF719
:101A0000CFF909B0F0BD0000001001401C0100201A
:101A10001600002000000240094B00209988002990
:101A20000CD008481A88805C521CC2F309021A8044
:101A3000012901D5002100E0491E9980704700006E
:101A4000160000201C0100202DE9F0410646FEF79B
:101A50000BFC054600240C4F10E0305D00280FD031
:101A60008021384600F0A1FF60B100200028F7D1A6
:101A7000315D384601F032F8641C6D1E002DECD14A
:101A8000BDE8F0810120F1E700100140FDEEC00A41
:101A9000B5EEC00A10B510EE900AF1EE10FA01D2C0
:101AA000B1EE400ADFED0B0A642220EE200ABDEE03
:101AB000C00A10EE101A91FBF2F302FB131400F0AF
:101AC0000DF805A0FFF7C0FF2046BDE8104000F06C
:101AD00005B800000000C8422E0000002DE9F041CA
:101AE00004004FF001054FF000064FEAD47008D013
:101AF00020B12D21012000F08CFA644220460A21F9
:101B00000BE0BDE8F0413021012000F082BA90FBEB
:101B1000F1F005EB85025500761C0028F7D195FB06
:101B2000F1F5002788460DE094FBF5F03030C1B2A6
:101B300094FBF5F005FB104495FBF8F5012000F04F
:101B400068FA7F1CB742EFDBBDE8F08102484089AC
:101B5000002800D00120704716000020F0B52C4D61
:101B6000064689B00021284600F015FF4FF4A0601A
:101B7000FFF748F929152748FEF795FB264800246A
:101B8000012144814804FFF793FD0320CDE9004083
:101B9000224F02230C22012138460294FEF757FC03
:101BA000072202213846FEF742FC0722032138466D
:101BB000FEF73DFC0C20ADF81600ADF81240039680
:101BC000ADF81840ADF81440ADF8104003A9284610
:101BD00000F02AFF0121284600F0DDFE012240F23C
:101BE0002551284600F007FF4021284600F0CAFE94
:101BF00026208DF81C0001208DF81F008DF81D0097
:101C00008DF81E0007A8FFF7CBF809B0F0BD000063
:101C1000004400401C050020160000200000024087
:101C2000094B0020598900290CD00848DA88805CCB
:101C3000521CC2F30902DA80012901D5002100E01B
:101C4000491E598170470000160000201C05002025
:101C50002DE9F0410646FEF707FB054600240C4F30
:101C600010E0305D00280FD08021384600F09DFE46
:101C700060B100200028F7D1315D384600F02EFF1A
:101C8000641C6D1E002DECD1BDE8F0810120F1E750
:101C900000440040FDEEC00AB5EEC00A10B510EEDB
:101CA000900AF1EE10FA01D2B1EE400ADFED0B0A14
:101CB000642220EE200ABDEEC00A10EE101A91FB3D
:101CC000F2F302FB131400F00DF805A0FFF7C0FFBC
:101CD0002046BDE8104000F005B800000000C842F2
:101CE0002E0000002DE9F04104004FF001054FF0F7
:101CF00000064FEAD47008D020B12D21022000F058
:101D000088F9644220460A210BE0BDE8F041302109
:101D1000022000F07EB990FBF1F005EB8502550042
:101D2000761C0028F7D195FBF1F5002788460DE0D9
:101D300094FBF5F03030C1B294FBF5F005FB104494
:101D400095FBF8F5022000F064F97F1CB742EFDB49
:101D5000BDE8F0810248008A002800D001207047C9
:101D600016000020F0B52C4D064689B0002128460B
:101D700000F011FE4FF4A060FFF744F82915274842
:101D8000FEF791FA26480024012104828804FFF717
:101D90008FFC0320CDE90040224F02238202194626
:101DA00038460294FEF753FB07220A213846FEF715
:101DB0003EFB07220B213846FEF739FB0C20ADF81D
:101DC0001600ADF812400396ADF81840ADF8144077
:101DD000ADF8104003A9284600F026FE0121284650
:101DE00000F0D9FD012240F22551284600F003FE03
:101DF0004021284600F0C6FD27208DF81C00012058
:101E00008DF81F008DF81D008DF81E0007A8FEF745
:101E1000C7FF09B0F0BD0000004800401C090020C9
:101E20001600002000040240094B0020198A0029F6
:101E30000CD008489A89805C521CC2F309029A812E
:101E4000012901D5002100E0491E198270470000D8
:101E5000160000201C0900202DE9F0410646FEF77F
:101E600003FA054600240C4F10E0305D00280FD027
:101E70008021384600F099FD60B100200028F7D19C
:101E8000315D384600F02AFE641C6D1E002DECD139
:101E9000BDE8F0810120F1E700480040FDEEC00AF6
:101EA000B5EEC00A10B510EE900AF1EE10FA01D2AC
:101EB000B1EE400ADFED0B0A642220EE200ABDEEEF
:101EC000C00A10EE101A91FBF2F302FB131400F09B
:101ED0000DF805A0FFF7C0FF2046BDE8104000F058
:101EE00005B800000000C8422E0000002DE9F041B6
:101EF00004004FF001054FF000064FEAD47008D0FF
:101F000020B12D21032000F084F8644220460A21EC
:101F10000BE0BDE8F0413021032000F07AB890FBDF
:101F2000F1F005EB85025500761C0028F7D195FBF2
:101F3000F1F5002788460DE094FBF5F03030C1B292
:101F400094FBF5F005FB104495FBF8F5032000F039
:101F500060F87F1CB742EFDBBDE8F081014600204E
:101F6000012905D0022905D0032905D1FFF7F2BECA
:101F7000FFF7E8BCFFF7EABD7047012806D002284A
:101F800007D0032808D10846FFF7ECBE0846FFF744
:101F9000E1BC0846FFF7E2BD704701460020012979
:101FA00005D0022905D0032905D1FFF73DBFFFF772
:101FB00033BDFFF735BE7047012806D0022807D091
:101FC000032808D10846FFF747BF0846FFF73CBD86
:101FD0000846FFF73DBE7047012805D0022805D00E
:101FE000032805D1FFF75ABFFFF750BDFFF752BED8
:101FF0007047012806D0022807D0032808D10846D8
:10200000FFF774BF0846FFF769BD0846FFF76ABED1
:10201000704708B58DF8001000218DF801100128D7
:1020200007D0022809D0032802D16846FFF714FF21
:1020300008BD6846FFF708FD08BD6846FFF708FEC3
:1020400008BD70470CB5002227490092019208682C
:1020500040F4803008604FF4A043086800F400307A
:1020600001900098401C0090019810B90098984287
:10207000F3D10868800334D5012001901A4840301C
:10208000026842F0805202601848026842F44042FE
:1020900002601548083002680260026842F400429B
:1020A0000260026842F4A0520260031F104A1A60E4
:1020B0000A6842F080720A600A689201FCD50D49F4
:1020C00040F205720A60016821F0030101600168B5
:1020D00041F0020101600168C1F381010229FAD1D6
:1020E0000CBD01920CBD00000038024000700040A1
:1020F00008544007003C024030B513469FED170AD4
:1021000000240A4603E0855C2E2D06D0521C9A421C
:10211000F9DD24B1B2EE041A14E01446F9E71A46C8
:1021200000F01EF800EE100AB8EEC00A30BDC25C26
:10213000303A00EE902A5B1EF8EEE00A70EE800A5C
:1021400080EE810AA342F2DC621E00F009F800EE84
:10215000900AF8EEE00A30EE800A30BD0000000080
:1021600030B500231D4608E0445C2D2C0ED0303BDA
:10217000234403EB83035B00491C9142F4DD0A20F6
:1021800093FBF0F0002D00D0404230BD0125F3E775
:102190004FF0E0210428086903D020F00400086112
:1021A000704740F00400FAE770470000124810B58D
:1021B000016841F4700101601048016841F00101BB
:1021C00001600E4A00210832116002680C4B1A406F
:1021D0000260031D0B4A1A60026822F4802202602A
:1021E00006480C300160FFF72DFF03494FF00060F7
:1021F0008039086010BD000088ED00E00038024022
:10220000FFFFF6FE1030002470B5048C24F00104AA
:102210000484058B048C4FF6FF7606EA0313134300
:1022200025F0F3052B4324F00A020A4342F0010192
:102230000383018470BDF0B5048C24F01004048481
:10224000078B068C4FF6FF7404EA011527F47347D9
:1022500004EA0331394304EA02220A4326F0A001CA
:10226000294341F0100102830184F0BD10B5264CD2
:102270000121204600F002F9012844D10121204625
:1022800000F0CBF821A0FFF747FB21480068FFF7DB
:1022900051FB20A0FFF740FB1F480068FFF74AFBF7
:1022A0001CA0FFF739FB1D480068FFF743FB19A08E
:1022B000FFF732FB1A480068FFF73CFB15A0FFF759
:1022C0002BFBFEF7F3FDFFF735FB12A0FFF724FB16
:1022D00014480078FFF72EFB0EA0FFF71DFB1248F5
:1022E00090ED000AFFF720FB0AA0FFF715FB0F484F
:1022F00090ED000AFFF718FB0DA0FFF70DFBBDE8FE
:102300001040FEF773BA10BD0040014028000000E5
:1023100058000020200000005C0000206000002029
:1023200064000020B3000020780000207C00002022
:10233000290000000121880700F06FB80121014841
:1023400000F06BB8000400400121014800F065B8BE
:10235000000800400121014800F05FB8000C004077
:1023600010B5084C0121204600F088F8012807D15B
:10237000FEF79EF82046BDE81040012100F04DB860
:1023800010BD00000010004070B51A4E012130460B
:1023900000F074F800282BD0174CD4E900018142DA
:1023A0001ED002DC4FF0010201E04FF00002134D9D
:1023B0004FF004012846FEF773F808212846FEF77F
:1023C00066F838B1D4E90021914201DA491C00E0F5
:1023D000491E616050B1002208212846FEF760F8CE
:1023E0003046BDE87040012100F017B80122F3E744
:1023F00070BD000000140040B80000200010024032
:102400000029018802D041F0800101E021F0800123
:1024100001807047C94301827047C94301827047F8
:102420000029018802D041F0010101E021F0010101
:1024300001807047002930F8441F02D041F4004168
:1024400001E0C1F30E010180704770B50589048B6E
:10245000068C25F007050D434FF6FC410C4040F279
:1024600001110C434FF6FF7101EA031126F0220619
:102470001143314305810483018470BD024600206D
:10248000138A92890B4202EA010202D0002A00D08C
:10249000012070472DE9F0410C460E884988A2883A
:1024A0002389054616B3042E28D0082E2E8C4FF60D
:1024B000FF702BD026F480562E84AF8B2E8C00EA32
:1024C000022200EA013127F473473A4300EA03305D
:1024D000104326F420420A4342F48051A883298401
:1024E000E1882846BDE8F04100F056B9FFF78CFEC0
:1024F000E1882846BDE8F04100F032B9FFF79BFEC5
:10250000E1882846BDE8F04100F032B926F4807633
:102510002E84AF8B2E8C00EA012100EA03101043B9
:1025200027F0F307384326F420620A4342F480710F
:10253000A8832984E1882846BDE8F04100F024B949
:1025400000210180418001228280C1800181704789
:10255000002A828901D00A4300E08A4382817047C1
:1025600030B5028C22F001020284028C8388048B35
:1025700022F0020224F073050C882C438D89154348
:102580004A882A430C4DA84202D00C4DA8420DD1D6
:1025900022F00805CA8923F440732A4322F0040577
:1025A0008A882A430D8A1D434B8A2B4383800483E8
:1025B00089684163028430BD00000140000401408D
:1025C000028B22F008020A430283704770B5028C26
:1025D00022F010020284028C8388048B0D8824F47C
:1025E000E6464FF6FF7404EA052535438E8922F04E
:1025F000200204EA061616434A8804EA021232430D
:10260000104EB04202D0104EB04215D122F08006DA
:10261000CA8923F4406304EA0212324322F04006DE
:102620008A8804EA021232430E8A04EA86061E43AE
:102630004B8A04EA8303334383800583896881637B
:10264000028470BD0000014000040140028B4FF67F
:10265000FF7322F4006203EA0121114301837047F2
:1026600070B5028C22F480720284028C8388848B81
:102670000D8824F0730425438E894FF6FF7422F4ED
:10268000007204EA062616434A8804EA022232430C
:10269000104EB04202D0104EB04215D122F4006666
:1026A000CA8923F4405304EA0222324322F48066AA
:1026B0008A8804EA022232430E8A04EA06161E437E
:1026C0004B8A04EA03133343838085838968C1639B
:1026D000028470BD0000014000040140828B22F0A2
:1026E00008020A438283704770B5028C22F480523C
:1026F0000284058C8288838B0C8823F4E6464FF68F
:10270000FF7303EA0424344325F400568D8903EA59
:10271000053535434E8803EA06362E43084DA84258
:1027200002D0084DA84205D122F480450A8A03EA66
:1027300082122A438280848389680164068470BD82
:102740000000014000040140828B4FF6FF7322F429
:10275000006203EA0121114381837047416270479F
:10276000028B22F00C020283028B0A430283704721
:10277000028B22F440620283028B4FF6FF7303EA5E
:1027800001210A4302837047828B22F00C0282836C
:10279000828B0A4382837047828B22F44062828359
:1027A000828B4FF6FF7303EA01210A43828370474D
:1027B00030B50288164C174DA0420DD0A8420BD060
:1027C000B0F1804F08D0144B984205D0134B98427B
:1027D00002D0134B984203D122F070034A881A4367
:1027E000104B984206D0104B984203D022F440730D
:1027F0000A891A4302804A68C2620A880285A04296
:1028000001D0A84201D1897A01860121818230BD9F
:1028100000000140000401400004004000080040A6
:10282000000C004000100040001400404FF0FF3149
:102830004160002101800181418081727047000068
:1028400070B5174C40F225552946204600F0B4F8E3
:10285000B0B12946204600F098F8204600F03AF939
:10286000024611480F4B41885A54491CC1F30901D3
:10287000418082882115531C8B4200D8511C8180D5
:102880000821204600F091F8012808D108212046AF
:1028900000F078F82046BDE8704000F01BB970BD2C
:1028A000001001401C0100201600002070B5174CDC
:1028B00040F225552946204600F07EF8B0B1294661
:1028C000204600F062F8204600F004F90246114864
:1028D0000F4B01895A54491CC1F3090101814289F6
:1028E0002115531C8B4200D8511C418108212046E0
:1028F00000F05BF8012808D10821204600F042F8DA
:102900002046BDE8704000F0E5B870BD00440040CE
:102910001C0500201600002070B5174C40F225550C
:102920002946204600F048F8B0B12946204600F07C
:102930002CF8204600F0CEF8024611480F4BC18912
:102940005A54491CC1F30901C181028A2115531C43
:102950008B4200D8511C01820821204600F025F846
:10296000012808D10821204600F00CF82046BDE8D7
:10297000704000F0AFB870BD004800401C09002056
:1029800016000020C943018070470A0A01219140C6
:10299000C943018070470029818902D041F4005168
:1029A00001E021F400518181704702460020128825
:1029B0000A4200D00120704770B501F01F050126C2
:1029C0000024C1F3421306FA05F2012B0FD0022BAB
:1029D0000FD0838A4FEA11210088134206FA01F6CC
:1029E00000EA060001D000B10124204670BD8389B1
:1029F000F0E7038AEEE710B5C1F3421301F01F04BC
:102A00000121A140012B07D0022B07D01430002A4E
:102A1000026805D00A4304E00C30F8E71030F6E70E
:102A20008A43026010BD00007FB50446008A0D464F
:102A3000C98820F4405001432182A08941F20C61F1
:102A40008843A9882A8911436A8902431143A181D5
:102A5000A08A20F44071A8890843A0826846FEF746
:102A60003FFE1A48844202D01948844201D103989B
:102A700000E00298A189090400EBC00101EB0010FD
:102A8000296801D5490000E08900B0FBF1F064221B
:102A9000B0FBF2F109010B096FF018056B4300EB75
:102AA0008300A3891D044FF0320306D503EBC00059
:102AB000B0FBF2F000F0070005E003EB0010B0FB04
:102AC000F2F000F00F00084320817FBD00100140AC
:102AD000001401408088C0F308007047C1F308016A
:102AE00081807047FEE7000010B504466FF00400D7
:102AF000FFF74EFB0649E00800EB40020870C2EB0E
:102B0000C0104FF6FF7202EAC000488010BD0000FE
:102B10001200002070B54FF40776B0FBF6F1CCB28E
:102B2000B0FBF6F106FB110504E0304600F00CF8AE
:102B3000641EE4B2002CF8D1002D04D02846BDE874
:102B4000704000F001B870BD0B49498848434FF010
:102B5000E021486100238B61086940F001000861B1
:102B60000869C20701D0C003FAD5086920F0010046
:102B700008618B617047000012000020A820FFF759
:102B8000B3FFFEF7F5FD304EDFF8B880DFF8BCA0EC
:102B900006F1280729212820FEF74CFE0028F9D04D
:102BA000012100240D46DFF8A89018E018F8050070
:102BB000202801D0292811D12248082CA5F1010292
:102BC00004DAFFF7CDFA46F8240005E0FFF794FA9F
:102BD00007EB840080ED000A641C691C6D1CD9F8A9
:102BE00000008542E2DBFEF753FE0A2CD2DB96E8BA
:102BF0000700FDF76FFD96ED030AB8EEC00AFEF779
:102C000087F9317C0020FEF7C5FA317D0120FEF7FF
:102C1000C1FA317E0220FEF7BDFAF06940B19AF8A0
:102C20000000544638B9FEF7C3F90120207002E0D5
:102C300000218AF80010D7ED090A97ED080AFDF780
:102C400041FDA7E71C0D0020CC0000200000002063
:102C50002C00002021F00042A2F16052B2F5801F4A
:102C600001F0004328BFD2F17F6C0BD95FEA001C52
:102C700043EAC20242EB507018BF704728BF20F0F1
:102C800001007047B2F5801FBCBF184670474FEA7D
:102C9000410C1CF5001F02D2084600F0FCBA70B5CA
:102CA00000F0B6F900000089FFF7F6BF4FF00040D2
:102CB000A0F580007047000010B591EA030F48BFEF
:102CC00083F0004300F10082841A71EB030C05D2FB
:102CD000121943EB0C03001B61EB0C01DFF824E13C
:102CE0004FEA1154A4EB135C1EEA430F18BF9EEA8F
:102CF000445F73D023EA0E03DCF1200E21EA045175
:102D000043F4801332D322FA0CFE10EB0E0023FAA8
:102D10000CFE41EB0E01CCF1200E03FA0EFE10EB7F
:102D20000E0051F10001B1F5801FCCF1200E32D21E
:102D300001EB045112FA0EF2BDE8104058BF704783
:102D4000401C38BF5FEA420218BF7047002814BF1A
:102D500020F0010041F100014FEA410313F5001F8B
:102D600038BF7047A1F1C04100F0A0B9012A43EB80
:102D70000302ACF1200CDCF11F0E32BF4FF0000E4D
:102D800023FA0CF310EB030041EB0451B4EB115F99
:102D9000D0D0A1EB045101F5801149085FEA300061
:102DA00001EB04510ED350F1000038BF12FA0EFEB1
:102DB00008D1BDE81040C9E7401C38BF5FEA4202B5
:102DC000CAD1C3E7BDE810404FEA410313F5001F25
:102DD00038BF7047A1F1C04100F068B99EEA445F76
:102DE00008D011EA5E0FBDE8104004BF01F00041B9
:102DF00000207047BDE8104070B500F009F900BF31
:102E000064FBBE3E0000E0FF4FEA41034FEA53532C
:102E1000A3F58063D3F11E03C8BFD3F1210C0CDDF1
:102E20004FF0004242EAC12242EA505232FA03FC19
:102E30008CEAE17CACEBE1707047102BC4BF002042
:102E4000704703F5787CBCF1FF3F04D06FF000427F
:102E500082EA2100704770B500F0DAF849922480C8
:102E600000207047F2E710F0004248BF4042B0FA3D
:102E700080F310FA03F10AD0C3F11D0303F5806358
:102E80004FEA415002EB035202EBD12170474FF061
:102E900000007047B0FA80F310FA03F10AD0C3F1D2
:102EA0001D0303F580634FEA41504FEA035202EBE2
:102EB000D12170474FF0000070470000DFF848C193
:102EC00070B51CEA111E1EBF1CEA13159EEA0C0FFA
:102ED00095EA0C0F00F06F8081EA030423EA4C139B
:102EE0004EEAD47E21EA4C1141F4801143F4801360
:102EF000AE44A1FB024CA0FB0365AEF17F7E361908
:102F000055EB0C05A1FB034C4CF10003A0FB021C8C
:102F100016EB0C06654153F10003094218BF46F059
:102F2000010613F4007F0BD14FEA03314FEA05305D
:102F3000340341EA155140EA16506FF003020AE0EB
:102F40004FEAC3214FEAC520F40241EA555140EA55
:102F500056506FF0020202EB2E4201EB025585EA59
:102F6000CE710AD05FEA440C18BF24F0004450F13F
:102F7000000041F1000120EAD47040F2FE7C62457D
:102F800000D270BDA84214BF4FF080444FF04044BF
:102F9000002E08BF0024BEF1806FA8BFA1F1C04180
:102FA000BDE8704080F282804FF0000001F1C04126
:102FB00001F0004170479EEA0C0F0CEA131518BF90
:102FC00095EA0C0F06D04FF0000081EA030E0EF0D8
:102FD000004170BD00F01CF88900013E00F007B808
:102FE00000F009B84FEA430C5FEA5C5C08D081EA64
:102FF000030100F05BB84FEA410C5FEA5C5CF6D17C
:103000004FF00000014970470000FF070000F87F03
:103010000EF1020E2EF0030E5EF8046B364205D45C
:10302000012A43EB030515F5001F12D8012841EBD7
:10303000010C1CF5001F0CD80ED14FEAD17C15F500
:10304000001F0CEB4C0C0CF1020C08BF4CEBD37CBA
:1030500004E04FF0080C01E04FEAD37C0CEB4C0588
:1030600026FA05F606F00706B6F1040C06D20EEBBA
:10307000860CBDE870404CF0010C6047DFE80CF0B6
:10308000090B02024FF000414FF00000A1F50021B2
:1030900070BD19461046012851EB010418BFD4F544
:1030A000001484BF002001F0004170BD0808A0F5A5
:1030B00000114FEA3101704710B591EA030F48BF84
:1030C00083F000433FF500AE841A71EB030C07D286
:1030D00012198CF0004C43EB0C03001B61EB0C014C
:1030E000DFF8A4E14FEA1154A4EB135C1EEA430F8E
:1030F00018BF9EEA445F00F0B08023EA6E0352429C
:1031000021EA0451C3EB6E0338BF5B1EDCF1200ED5
:1031100025D322FA0CFE10EB0E0043FA0CFE41EB15
:103120000E01CCF1200E03FA0EFE10EB0E0051F151
:103130000001CCF1200E29D412FA0EF201EB045159
:10314000BDE8104058BF7047401C1CBFB2F1004F93
:10315000704700280CBF491C20F00100704712EB9B
:10316000020E43EB030218BF4FF0010E4EEA42027B
:10317000ACF1200CDCF11E0E54D943FA0CFE10EB1E
:103180000E0051F1FF31CCF11E0ED5D50EF1010E1E
:1031900012FA0EFE404141EB010101EB445C5FEA93
:1031A0005C5C10D910EBDE7001EB045138BFBEF14E
:1031B000004FBDE8104018BF704700280CBF491CE5
:1031C00020F00100704730D24FEAD42C11F50011E5
:1031D00024F400641BD0B1FA81F20B3AA41AA41EA5
:1031E000D2F12003914030FA03F31943904001EBF0
:1031F000CC71002C01EB0451BDE81040A8BF704712
:1032000001F1C0414FF0000001F000417047B0FAF9
:1032100080F310FA03F100D110BDE41A173C480501
:10322000C90AE4E701EB045110BD491001EB045158
:10323000BDE810404FEA300002E04FF00001704757
:103240004A0008BF0042F8D0B2F5001F28BF7047FF
:1032500001F000414FF0000070479EEA445F07D044
:1032600011EA5E0FBDE8104004BF00210020704746
:10327000BDE8104070B5FFF7CBFE00BF40DFF63E63
:1032800083F00041104670470000E0FF4FF04070AF
:10329000E1EE100A7047FF2141EAD050C0057047A7
:1032A000C032000800000020CC000000C40100086B
:1032B0008C330008CC000020B4160000E0010008A8
:1032C00000000000000102030401020304060708D5
:1032D00009000000000000000000000000000000E5
:1032E00000000000000000000100000000000000DD
:1032F00000000000000000000000000000000000CE
:1033000000000000000000000000000000000000BD
:10331000000000000A0000000000000000000000A3
:10332000000000000000000000000000000000009D
:1033300000000000000000000000204100000040EC
:10334000000000000000000000000000000000007D
:10335000000000000000000000000000000000006D
:10336000000000000000000000000000000000005D
:10337000FF02005A000000000000000000000000F2
:0C33800000000000000000000000000041
:040000050800018965
:00000001FF
